:020000040800F2
:100000006007002041020008851F0008DF18000873
:10001000811F0008EF1200080325000800000000FF
:100020000000000000000000000000006121000846
:10003000E1140008000000001520000879220008E3
:100040005B0200085B0200085B0200085B0200081C
:100050005B0200085B0200085B0200085B0200080C
:100060005B0200085B0200085B0200085B020008FC
:100070005B0200085B0200085B0200085B020008EC
:100080005B0200085B0200085B0200085B020008DC
:100090005B0200085B0200085B0200085B020008CC
:1000A0005B0200085B0200085B0200085B020008BC
:1000B0005B0200085B0200085B0200085B020008AC
:1000C0005B0200085B0200085B0200085B0200089C
:1000D0005B020008E52200085B0200085B020008E2
:1000E0005B0200085B0200085B0200085B0200087C
:1000F0005B0200085B0200085B0200085B0200086C
:100100005B0200085B0200085B0200085B0200085B
:100110005B0200085B0200085B0200085B0200084B
:100120005B0200085B0200085B0200085B0200083B
:100130005B0200085B0200085B0200085B0200082B
:100140005B0200085B0200085B0200085B0200081B
:100150005B0200085B0200085B0200085B0200080B
:100160005B0200085B0200085B0200085B020008FB
:100170005B0200085B0200085B0200085B020008EB
:100180005B0200085B02000800F002F800F049F88A
:100190000AA090E8000C82448344AAF10107DA45E2
:1001A00001D100F03EF8AFF2090EBAE80F0013F0EB
:1001B000010F18BFFB1A43F0010318475C9B0200B4
:1001C0007C9B0200103A24BF78C878C1FAD8520745
:1001D00024BF30C830C144BF04680C6070470000C1
:1001E0000023002400250026103A28BF78C1FBD840
:1001F000520728BF30C148BF0B607047662902F024
:100200005685002070471FB502F047FD00F02EFB19
:1002100004000020002102F05FFBE0601FBD10B56C
:1002200010BD00F03BFC1146FFF7EDFF02F022FA93
:1002300000F059FC03B4FFF7F2FF03BC02F082F9AF
:100240000948804709480047FEE7FEE7FEE7FEE76A
:10025000FEE7FEE7FEE7FEE7FEE7FEE704480549A6
:10026000054A064B704700007D22000889010008FE
:100270006001002060070020600300206003002070
:10028000704700000FB4044910B503AA029800F0AB
:10029000DBFA10BC5DF814FB1400002070B50446B6
:1002A00085690068C10601D5302600E02026C00718
:1002B00007D070BDD4E9012130469047206A401C28
:1002C00020626D1EF6D570BD70B504468569007854
:1002D000C00707D170BDD4E9012120209047206AD2
:1002E000401C20626D1EF6D570BD00002DE9F05F48
:1002F000894604464FF0000ADFF824B1FB44C0F8F9
:1003000020A02046E168884700287DD0252806D017
:10031000D4E901219047206A401C2062F1E70025C2
:100320005F462046E16888472028064607DB312ED5
:1003300005D2B81910F8200C08B10543F1E7A80759
:1003400001D525F00405C4F81CA00027C4F818A0A6
:100350002A2E09D0304602F0EEF838B304EB8708B5
:10036000303EC8F8186019E059F8041B204604EB29
:1003700087029161E1688847012F064618D1E0693C
:10038000002820DA25F020051DE0D8F8180000EB41
:10039000800006EB40003038C8F818002046E168BD
:1003A0008847064602F0C7F80028EED1012F0AD090
:1003B0002E2E08D12046E16888477F1C0646022F72
:1003C00045F02005C4DBA069002803DA404245F06F
:1003D0000105A061E80701D025F01005A6B1A6F13E
:1003E0004100192802D8203645F400654A463146B6
:1003F000204625604D46FFF701FF60B1012807D078
:10040000ED1D25F0070000E007E000F1080978E79E
:1004100005F1040975E730467AE7206ABDE8F09FE8
:1004200072990200704770477047704770472DE916
:10043000FF4F0C461E464FF0FF378BB0D2E900014C
:10044000DDF860800A908A46C1F30A5505B93D4639
:10045000002108464FF00000BAF1000F00F4400000
:1004600005DA00EB80004FF4400101EA50004FEA4A
:100470009059B9F1010F00DDB9460A9850EA4A00D7
:100480000ED044F61050A5F2FF3545432F14B8F1B5
:10049000000F1ED07542291E1EDDC9F100021CE0AE
:1004A000B8F1010F4FF0000001D0302103E0F2431A
:1004B00005E02154401CB042FBDB30460022002105
:1004C00021540B99C1F80880C1E900200FB0BDE8A4
:1004D000F08FBD1B6D1CDEE74A4600DA694206A8B4
:1004E00000F066FA06AB93E8070003AB83E8070069
:1004F00050460A9900F040FB8DE80700A0F5005037
:100500001F3800900398002D09DD42F21F014A4672
:10051000084403A90390684600F09FFD08E0A0F599
:1005200000504A461F3803A90390684600F0A9FD11
:100530008DE807000004000C03D04FF0FF304108A5
:1005400000E01046B8F1000F03D0002200921546DB
:100550001EE0751E05D400F08DF9303262556D1E17
:10056000F9D5B3460122084302D000227F1C04E0E3
:100570002078302801D100227F1E002A099786D0DA
:100580001DE0112D07DA00F075F9303262556D1C4F
:1005900050EA0102F5D1084302D00098C8B10EE03C
:1005A0000021681E05E0235C625C63542254401EF7
:1005B000491C8142F7DBAB46A81B401E0990002076
:1005C00004F80B000B98099AC0F80880C0E9002BCA
:1005D0007CE711264FF0000859E72DE9F04F8846D7
:1005E0000446D21D22F0070191B0D1E90001CDE906
:1005F0000A0101F088FF02460B98C00F01D02D20A0
:1006000007E02068810701D52B2002E0202101EAC4
:10061000C000032A099001D0072A05DB03464146A2
:10062000204600F085F90BE12078800601D5E069CD
:1006300000E00620B8F1650F814606D0B8F1660FDC
:1006400018D0B8F1670F70D131E00020B9F1110F67
:10065000009001DB112301E009F101030AAA01A9BD
:100660000CA8FFF7E4FEDDE90C70002609F1010596
:10067000834647E001204B4600904FF000470AAA0E
:1006800001A90CA8FFF7D3FEDDE90DB00C995D467A
:10069000002610B909F101000D18B9EB050003D4CB
:1006A000C0F1FF3609F10105A5EB09002BE0B9F116
:1006B000010F01DA4FF001090020B9F1110F00908C
:1006C000484601DD112300E003460AAA01A90CA84F
:1006D000FFF7ADFEDDE90C704D460026834620781D
:1006E00000070AD4AB4500DA5D4601A8012D04DD00
:1006F000411911F8011C302907D04F4502DA17F1D2
:10070000040F04DA012082460FE06D1EEEE7002F91
:1007100002DCED1B3E4403E0781CA84200DD7D1C9A
:10072000B81B00F1010A4FF000472078000703D4FE
:10073000AA4501DB4FF0FF3A0021B7F1004F0DF160
:1007400043088DF8431024D002202B23002F01DA18
:100750007F422D230A21021EA0F1010000DC5FB1BF
:1007600097FBF1FC97FBF1F201FB1C7C17460CF1A7
:10077000300C08F801CDEEE7A8F1010003702188E4
:10078000090501D5452100E06521A0F1010800F827
:10079000011C09980FA9A1EB0807FF1D00B101205A
:1007A000411901EBEA70A1693844081A401EA061A2
:1007B0002078C00602D42046FFF770FD099828B1C2
:1007C000D4E901219047206A401C20622078C006AD
:1007D00022D52046FFF762FD1EE0002E04DBB34564
:1007E00002DD01A8805D00E03020D4E901219047BE
:1007F000206A401C2062761CAAF101005FEA000A10
:100800000AD100F033F8C0680168405CD4E90121E6
:100810009047206A401C2062281EA5F10105DCDCFF
:1008200007E0D4E9012118F8010B9047206A401C29
:100830002062381EA7F10107F3DC2046FFF744FDD4
:10084000032011B043E60000074B70B50D467B4412
:1008500000F05BF80446284600F018F910B14FF09C
:10086000FF3070BD204670BD071E00000048704775
:100870001C01002030B5B0F10A024FEA900E71F170
:1008800000034EEA817EB0EB0E0061EB91014FEA6E
:10089000101E4EEA017E10EB0E0041EB11114FEAE3
:1008A000102E4EEA016E10EB0E0041EB11214FEAC3
:1008B000104E4EEA014E10EB0E0041EB1141401874
:1008C00041F100014FEAD00040EA41704FEAD10106
:1008D00010EB80054FEA810444EA907444EB010474
:1008E0006D1944EB0404521BA3414FF0000348BFB1
:1008F0000A3200D530BD401C41F1000130BD00007E
:1009000001694A1C02610878704700B58FB0CDE9D3
:1009100001310021059105497944CDE903101146C3
:100920006846FFF7E3FC0FB000BD0000E5FFFFFFE6
:100930002DE9F0411F46044603260168072A01F409
:10094000006004DB08B116A505E016A503E008B1B8
:1009500015A500E015A521F010002060A069C01EBB
:10096000A0610FB1401EA0612046FFF797FC4FB178
:10097000D4E9012138469047206A401C2062C01CFF
:10098000206206E0206AFAE7D4E9012115F8010B9C
:100990009047761EF8D22046FFF796FCBDE8F0811E
:1009A0004E414E006E616E00494E4600696E660013
:1009B0002DE9F047814616468AB0334878440DC881
:1009C0008DE80D0030487844801C03AC0DC884E8E5
:1009D0000D0041F69B300844372190FBF1F290FB6B
:1009E000F1F5A5F1800501FB12041B3C02D5644220
:1009F000012000E00020DFF890A080460027FA44A4
:100A0000AAF1BE0A0DE0E00709D03246684607EBBE
:100A100047010AEB810100F034FB8DE80700641008
:100A20007F1C002CEFD1184F7F44AC3F18E0E80743
:100A300014D007EB04100DF1180A90E80E008AE8B4
:100A40000E00C068F04201D198190890324606A9FC
:100A500003A800F016FB03AB83E807006D10641CCD
:100A6000002DE4D132466946B8F1000F03A802D048
:100A700000F0F3FA01E000F004FBC9E90001C9F855
:100A800008200AB0BDE8F08740930200007B00F028
:100A90008000704700487047FC0000207546FFF753
:100AA000F9FFAE4605006946534620F0070085462B
:100AB00018B020B5FFF7D2FBBDE820404FF000068C
:100AC0004FF000074FF000084FF0000B21F0070136
:100AD000AC46ACE8C009ACE8C009ACE8C009ACE879
:100AE000C0098D46704710B50446AFF3008020461C
:100AF000BDE81040FFF79EBB4FF0013C50F8042BBF
:100B000051F8043B9A4221D1A2EB0C03934313EA20
:100B1000CC1317D150F8042B51F8043B9A4215D14D
:100B2000A2EB0C03934313EACC130BD150F8042B24
:100B300051F8043B9A4209D1A2EB0C03934313EA08
:100B4000CC13DBD04FF00000704700BFD01A01BAC1
:100B5000B1FA81F101F0180122FA01F0CB40C1F1A4
:100B60002001DBB2C0B2C01A2CFA01F3D11A9143B2
:100B700011EAC311E6D170475FEA400C08BF91F05B
:100B8000000F4FEA8C234FEAC12243EA51514FEA4A
:100B90001C5018BF00F5F0404FEA300018BF41F07C
:100BA00000415FEA6C5C00F02980BCF1FF3F08BFA8
:100BB00040F080407047130C06BF12044FF0100C39
:100BC0004FF0000C130E04BF12020CF1080C130FAF
:100BD00004BF12010CF1040C930F04BF92000CF13E
:100BE000020CD30F04BF52000CF1010C11464FF060
:100BF0000002A0F11F00A0EB0C00704711F0004FA5
:100C000008BF704731F000413FF4D5AF0B0C06BF71
:100C100009044FF0100C4FF0000C0B0E04BF09023A
:100C20000CF1080C0B0F04BF09010CF1040C8B0F25
:100C300004BF89000CF1020CCB0F04BF49000CF17A
:100C4000010CCCF12003A0EB0C0022FA03F302FA12
:100C50000CF241EA030100F10100704720F07F4CE3
:100C600080EA030023F07F47ACEB070303F57C53D6
:100C700000F0004003F1FF032DE980494FEA154BD6
:100C800009B44FEA144325EA0B4E24EA03480FF255
:100C9000042606EB132749083E785FEA320203FB7D
:100CA0000667C7F5000707FB06F64FEA54374FEA19
:100CB000D64606F1020607FB066CCCF1005C4FEA53
:100CC0001C472CEA074C07FB06F40CFB06F504EB6B
:100CD00015464FEA961634BF00204FF000404FEA09
:100CE000D13706FB07FC4FEA1C4C0CFB0BF7D21B61
:100CF00003FB0CF761EB07010CFB0EF7B0EB0740B1
:100D000072EB17420CFB08F734BFA2EB0742B2EBC1
:100D1000074261EB17414FEA0C444FEA910706FB8B
:100D200007FC4FEA1C4C0CFB0BF7B0EBC74072EB17
:100D3000573203FB0CF734BFA2EBC742B2EBC742FA
:100D400061EB57310CFB0EF7B0EBC70072EB57723B
:100D50000CFB08F734BFA2EBC702B2EBC70261EB92
:100D60005771039F4FEA816141EA921104EBCC0471
:100D70004FEAD1374FEA826206FB07FC42EA901243
:100D80004FEA80604FEA1C4C0CFB0BF7D21B03FBB5
:100D90000CF761EB07010CFB0EF7B0EB074072EBB1
:100DA00017420CFB08F734BFA2EB0742B2EB074235
:100DB00061EB17414FEA8C554FEA910704EB9C24F5
:100DC00006FB07FC4FEA1C4C0CFB0BF7B0EBC740D3
:100DD00072EB573203FB0CF734BFA2EBC742B2EB06
:100DE000C74261EB57310CFB0EF7B0EBC70072EB5B
:100DF00057720CFB08F734BFA2EBC702B2EBC70275
:100E000061EB577115EB4C254FEA816141EA921174
:100E10004FEA82624FEAD13742EA901206FB07FCA2
:100E200044F100044FEA80604FEA1C4C0CFB0BF7C6
:100E3000D21B03FB0CF761EB07010CFB0EF7B0EBC9
:100E4000074072EB17420CFB08F734BFA2EB0742D6
:100E5000B2EB074261EB174115EB1C154FEA8131EC
:100E600041EA92414FEA823242EA90424FEA8030B0
:100E70004FEA0C7644F1000448EA03434EEA0B487B
:100E80004FF0000EB2EB080C71EB030724BF624673
:100E900039464EEB0E0E4FF0000B001852414941FF
:100EA0004BEB0B0BB2EB080C71EB03077BF1000B68
:100EB00024BF624639464EEB0E0E4FF0000B001871
:100EC000524149414BEB0B0BB2EB080C71EB0307A2
:100ED0007BF1000B24BF624639464EEB0E0E51EA01
:100EE000020718BF46F0010616EB0E7655F1000218
:100EF00054F1000103D5BDE88901BDE80088BDE8D3
:100F00008901BDE80048B619524141EB0101A3F146
:100F10000103704780807F7E7D7C7B7A797877764D
:100F200076757473727171706F6E6E6D6C6C6B6AC6
:100F30006A69686867666665646463636261616064
:100F4000605F5F5E5E5D5D5C5C5B5B5A5A595958E1
:100F5000585757565655555554545353525252514B
:100F6000515050504F4F4F4E4E4D4D4D4C4C4C4BA1
:100F70004B4B4A4A4A4949494848484747474746E8
:100F80004646454545444444444343434342424224
:100F900042414141002B26D4770021D01CB54FEAB5
:100FA000370703B44FF010004FF010014FF000006E
:100FB0000FBCBDE810400BF1010BBBF1010F08BFE6
:100FC0005FEA170722BF12F1010211F101014FF090
:100FD000004143F1000300F0004043EA0000704785
:100FE000F9D35708DAE746EA064613F1400F4FEA0D
:100FF00016461FDD13F1200FDFBF16430A460021FE
:1010000020335B42C8D0C3F1200746EA064602FA05
:1010100007F74FEA164646EA0706C3F1200722FA09
:1010200003F201FA07F721FA03F14FF0000342EA55
:101030000702B1E746EA020646EA06464FEA1646C6
:1010400046EA0106BCBF46EA0646360C4FF00003EE
:101050004FF000024FF000019EE72DE9C048934693
:1010600030B491E8380007C831EA400C48BF34EA90
:10107000430C03D5FFF7F2FDFFF78CFFF0BCBDE892
:1010800000882DE9C048934630B491E8380007C87D
:1010900010F0804F08BF13F0804F03D100F005F827
:1010A000FFF778FFF0BCBDE8008820F07F4780EABA
:1010B000030023F07F4C07EB0C03A3F57C5300F0F7
:1010C0000040A3F1FE0392F0000F00F0B38095F012
:1010D000000F00F077802DE901494FEA11404FEAF7
:1010E000144621EA004800FB06FC24EA064708FBF8
:1010F00006F607FB08F800FB07F718EB06484CEB71
:10110000164C4FEA124B18EB07484FEA15464CEBCA
:10111000174022EA0B4E0BFB06FC25EA06470EFBA6
:1011200006F607FB0EFE0BFB07F71EEB064E4CEB1D
:10113000164C4FF000061EEB074E4CEB174B18EB0E
:101140000B0840F1000018EB0E0B58EB000840F1C3
:1011500000008F1A4FF000013CBFC943661B14BF4B
:10116000B5EB040C00213CBFC943F61B4FEA174402
:101170004EEA8E0E27EA04454FEA1C4704FB07623D
:101180002CEA074C05FB07F70CFB05F604FB0CFCEF
:1011900016EB074642EB174216EB0C4642EB1C429D
:1011A0001BEB060658EB0202414146EA9E0601D5BA
:1011B000BDE80189B619524141EB0101A3F10103D8
:1011C000BDE801894FEA14454FEA114724EA054674
:1011D00021EA074C05FB07F406FB07F70CFB06F1B9
:1011E00005FB0CFC11EB074144EB17444FEA124797
:1011F00011EB0C4144EB1C4422EA074C05FB07F2BF
:1012000006FB07F70CFB06F605FB0CFC16EB074686
:1012100042EB174216EB0C4642EB1C456A1854F1A0
:10122000000148BF7047B619524141EB0101A3F1DB
:101230000103704795F0000F37D04FEA11424FEA93
:10124000144721EA024624EA074C02FB07F106FB99
:1012500007F70CFB06F402FB0CFC14EB074441EB14
:1012600017414FEA154714EB0C4441EB1C4125EAAA
:10127000074C02FB07F506FB07F70CFB06F602FB23
:101280000CFC16EB074645EB174516EB0C4645EBF9
:101290001C42121951F1000148BF7047B619524162
:1012A00041EB0101A3F1010370474FEA14454FEAF6
:1012B000114724EA054621EA074C05FB07F106FB26
:1012C00007F70CFB06F24FF0000605FB0CFC12EBD7
:1012D000074241EB174112EB0C4251EB1C4148BF56
:1012E0007047921841EB0101A3F10103704700BF61
:1012F000FEE710B500F02CF8012001F045F9CC20F4
:1013000000F0CCF8442000F0C9F8642001F03CF96A
:1013100010BD00001CB50121084600F07DFE4FF411
:101320000040009001208DF804008DF806008DF833
:10133000070003208DF805006946044800F059FABB
:101340004FF40041014800F0C8FA1CBD0000024003
:1013500010B5002400200E4908604FF4FA7001F027
:101360002FF901200B49C1F8BC020AE0012001F06D
:1013700027F9601C84B241F28830844201DD0020EC
:1013800010BD034800680028F0D10120F8E70000F4
:10139000BC0240420000404270B500241BE0002027
:1013A0000F490860012001F00BF901200D49C1F837
:1013B000BC02062001F004F94FF400410A4800F095
:1013C00083FA0646681040EAC610C5B2302001F024
:1013D000F7F8601CC4B2082CE1DB284670BD0000A1
:1013E000BC024042000040420000024010B5FFF73E
:1013F000AFFF012001F0C8F8CC2000F04FF8BE206C
:1014000000F04CF810BD00002DE9F0412DED048BEB
:1014100000260027FFF76DFFFFF7E8FFFFF7BCFF8F
:101420000746FFF7B9FF064634464FF6FF7000EA5D
:1014300004243C43002585B9204601F0ABFA41EC79
:10144000190B9FED130B53EC102B01F0B7FA41EC85
:10145000180B01F057FA10490860012D13D1601ED6
:1014600084B2E043404201F07EFA41EC190B9FED5B
:10147000080B53EC102B01F0A1FA41EC180B01F012
:1014800041FA05490860BDEC048BBDE8F08100001D
:10149000000000000000B03F2000002070B50446AE
:1014A000002515E000200C490860012001F088F8B3
:1014B00004F001000949C1F8BC02442001F080F8A1
:1014C00001200549086001F07BF86410681CC5B272
:1014D000082DE7DB70BD0000BC0240420000404226
:1014E0007047000000B59FB001215A2000F094FD24
:1014F0000121084600F0A0FD4CF233701D9002203F
:101500008DF8780000208DF87A0003208DF879009E
:1015100001208DF87B001DA96C4800F06AF94FF698
:1015200080701D9002208DF8780000208DF87A00E0
:1015300003208DF8790001208DF87B001DA96448F7
:1015400000F057F904201D9002208DF8780000204B
:101550008DF87A0003208DF8790001208DF87B004A
:101560001DA95C4800F045F94FF480501D90022001
:101570008DF8780000208DF87A0003208DF879002E
:1015800001208DF87B001DA9524800F032F90C2291
:1015900000214E4800F075F90C2201214B4800F063
:1015A00070F90C220421494800F06BF90C22052146
:1015B000464800F066F90C220821444800F061F921
:1015C0000C220921414800F05CF90C220A213F4815
:1015D00000F057F90C220E213C4800F052F90C2281
:1015E0000F213A4800F04DF90C220721384800F04D
:1015F00048F90C220821364800F043F90C22092151
:10160000334800F03EF90C220A21314800F039F944
:101610000C220B212E4800F034F90C2211462C48E4
:1016200000F02FF90C220D21294800F02AF90C2294
:101630000E21274800F025F90C220F21244800F044
:1016400020F90C220221234800F01BF90C2211463C
:10165000204800F016F90F200790002008903C2049
:10166000099000200A900B900C900D90092000909A
:101670000020019008200290002003900490059023
:10168000069006200E9000200F90109010201190D0
:101690000020129014901390159016904FF48050E3
:1016A0001790002018904FF48040199000201A9055
:1016B00007A81B90CDF870D00EA800F027F80121E4
:1016C000062000F009F81FB000BD0000000C024029
:1016D000001002400018024051B18200A2F1C04245
:1016E000126842F001038200A2F1C042136009E0D7
:1016F0008200A2F1C0421268034B1A408300A3F19A
:10170000C0431A6070470000FEFF0F00D0E90112CD
:101710001143C2681143026911434269114382694E
:101720001143C2691143026A1143426A1143826A3A
:101730001143C26A1143026B114302689200A2F185
:10174000C0421160816808290BD101688900A1F1AC
:10175000C041096841F0400201688900A1F1C0411F
:101760000A60416B0968426B526841EA0211426BA0
:10177000926841EA0221426B928941EA0241426B3E
:10178000128A41EA0251426B127D41EA0261426BC8
:10179000926911430268521C9200A2F1C04211608A
:1017A000C16AB1F5804F1BD1816B0968826B5268A9
:1017B00041EA0211826B926841EA0221826B128A2D
:1017C00041EA0251826B127D41EA0261826B9269A9
:1017D000114302689200A2F1C042C2F8041107E06E
:1017E0006FF0704201688900A1F1C041C1F8042185
:1017F0007047F0B50A4600210023002400BF3DE0F9
:10180000012505FA01F3156805EA03049C4234D169
:1018100005684F000326BE40B543056015794E00AC
:10182000B5400668354305601579012D02D015795C
:10183000022D16D185684F000326BE40B543856052
:1018400055794E00B5408668354385604568012668
:101850008E40B5434560456896798E40B6B23543B3
:101860004560C5684F000326BE40B543C560D579C5
:101870004E00B540C6683543C560491C1029BFD32A
:10188000F0BDF0B5002300244D07ED0E02FA05F37C
:10189000CE1000F1200555F826504E07F70E0F2602
:1018A000BE40B543CF1000F1200646F82750CE10B9
:1018B00000F1200555F8265045EA0304CE1000F14A
:1018C000200545F82640F0BD0246002013690B4074
:1018D0000BB1012000E0002070470183704700BF7A
:1018E000FEE7000000B50246002A39D100BFF02013
:1018F000384948804FF4A07008802A2000F014FB7B
:10190000002000F005FB002000F002FB314949886F
:10191000491EC1F30F2000F0FBFA2E498978491EB9
:10192000C8B200F0F5FA2B2000F0FEFA002000F01B
:10193000EFFA002000F0ECFA26490988491EC1F3AD
:101940000F2000F0E5FA23490978491EC8B200F0DB
:10195000DFFA2C2000F0E8FA002000F0D9FA37E096
:101960004FF4A0701B494880F02008802A2000F026
:10197000DBFA002000F0CCFA002000F0C9FA15498B
:101980004988491EC1F30F2000F0C2FA1149897835
:10199000491EC8B200F0BCFA2B2000F0C5FA0020A6
:1019A00000F0B6FA002000F0B3FA0A490988491E8F
:1019B000C1F30F2000F0ACFA06490978491EC8B2FD
:1019C00000F0A6FA2C2000F0AFFA002000F0A0FAF8
:1019D00000BD0000EC00002030B504460D462A2072
:1019E00000F0A2FA201200F093FAE0B200F090FAB0
:1019F0002B2000F099FA281200F08AFAE8B200F0E1
:101A000087FA2C2002490880881C028030BD000023
:101A1000FE1F006C10B500F093FAFFF763FD13484A
:101A2000006820F00F004FF02041C1F81C0108466B
:101A3000D0F81C0120F47060C1F81C010846D0F8F1
:101A40001C0140F00300C1F81C010846D0F81C013D
:101A500040F40070C1F81C0100F00CF80020FFF702
:101A600041FF01200249086010BD00001C0100A0D8
:101A7000A882424210B5CF2000F056FA002000F0B4
:101A800047FAC12000F044FA302000F041FAED207E
:101A900000F04AFA642000F03BFA032000F038FA24
:101AA000122000F035FA812000F032FAE82000F030
:101AB0003BFA852000F02CFA102000F029FA7A2059
:101AC00000F026FACB2000F02FFA392000F020FA9F
:101AD0002C2000F01DFA002000F01AFA342000F04B
:101AE00017FA022000F014FAF72000F01DFA202067
:101AF00000F00EFAEA2000F017FA002000F008FAD1
:101B0000002000F005FAC02000F00EFA1B2000F0C3
:101B1000FFF9C12000F008FA012000F0F9F9C52012
:101B200000F002FA302000F0F3F9302000F0F0F974
:101B3000C72000F0F9F9B72000F0EAF9362000F0EC
:101B4000F3F9482000F0E4F93A2000F0EDF95520CF
:101B500000F0DEF9B12000F0E7F9002000F0D8F93C
:101B60001A2000F0D5F9B62000F0DEF90A2000F0C6
:101B7000CFF9A22000F0CCF9F22000F0D5F9002036
:101B800000F0C6F9262000F0CFF9012000F0C0F9DE
:101B9000E02000F0C9F90F2000F0BAF92A2000F087
:101BA000B7F9282000F0B4F9082000F0B1F90E20B0
:101BB00000F0AEF9082000F0ABF9542000F0A8F9CD
:101BC000A92000F0A5F9432000F0A2F90A2000F0B6
:101BD0009FF90F2000F09CF9002000F099F90020F7
:101BE00000F096F9002000F093F9002000F090F941
:101BF000E12000F099F9002000F08AF9152000F0AA
:101C000087F9172000F084F9072000F081F91120EE
:101C100000F07EF9062000F07BF92B2000F078F927
:101C2000562000F075F93C2000F072F9052000F014
:101C30006FF9102000F06CF90F2000F069F93F20D7
:101C400000F066F93F2000F063F90F2000F060F922
:101C50002B2000F069F9002000F05AF9002000F074
:101C600057F9012000F054F93F2000F051F92A20E3
:101C700000F05AF9002000F04BF9002000F048F97C
:101C8000002000F045F9EF2000F042F9112000F0AB
:101C90004BF9782000F078FC292000F045F910BDC0
:101CA00010B50246012000E050430B1EA1F10104D3
:101CB000E1B2F9D110BD00002DE9F84F80460E4683
:101CC00017461C46B3462046E31704EB5373DB105C
:101CD00021464FEAE47C04EB5C7C4FEAEC0CA4EB7D
:101CE000CC0CBCF1000F02D04FF0010C01E04FF022
:101CF000000C6344224604EBD27C4FEA6C0C03FBDD
:101D00000CF3DBB20093F020324948804FF4A0700E
:101D10000880A7F12000C7B2002556E00C2C07D19F
:101D200007EB47002C4901EB800010F8059013E009
:101D3000102C05D1294800EB071010F805900BE096
:101D4000182C07D107EBC700254901EB800010F8DC
:101D5000059001E0BDE8F88F4FF0000A2FE009F090
:101D6000800030B11F48028831464046FFF734FEFC
:101D700007E00A9828B91C48028831464046FFF718
:101D80002BFE4FEA49604FEA1069701C86B2114879
:101D90004088B04200DCDDE7A6EB0B00A0420AD190
:101DA0005E4608F101001FFA80F80A4800884045A5
:101DB00000DCCFE706E00AF1010000F0FF0ABAF10B
:101DC000080FCCDB00BF681CC5B200988542A5DBBC
:101DD00000BFBFE7EC000020B28402082689020899
:101DE000168F02081A0000201C0000202DE9F84779
:101DF00004460D4690469946DDE9096704F0FF0A5E
:101E000008EB04001FFA80F809EB05001FFA80F9BF
:101E100016E0444502DB5446A81985B24D4500DB67
:101E200014E0002000903A78334629462046FFF718
:101E300043FF304606EBD07104EB61018CB27F1C8E
:101E400038787E2802DC38782028E2DA00BFBDE846
:101E5000F8872DE9FF4F82B0064692461F46DDE91E
:101E60000F480020019000254DE0781B401EC1B2B4
:101E70000A20FFF715FFBAFBF0F00A21B0FBF1F2E0
:101E800001FB1209019850BB781EA84227DDB9F169
:101E9000000F22D108F0800078B108F00100A346BD
:101EA00004EBDB71491001FB0561009088B2234609
:101EB00030220399FFF700FF0EE008F00100A3466F
:101EC00004EBDB71491001FB0561009088B22346E9
:101ED00020220399FFF7F0FE13E00120019008F0A3
:101EE0000100A34604EBDB71491001FB0561009082
:101EF00088B209F13001CAB223460399FFF7DCFE2C
:101F000000BF681CC5B2BD42AFDB06B0BDE8F08FB4
:101F100001B5BDF800000090BDF80000014908803F
:101F200008BD00000020006C01B5BDF80000009065
:101F3000BDF800000149088008BD0000FE1F006CCC
:101F40001CB50121202000F067F84FF4806000905C
:101F500001208DF8040000208DF8060003208DF884
:101F6000050001208DF8070069460448FFF741FC91
:101F70004FF480610148FFF7B0FC1CBD0014024023
:101F800000BFFEE77047000070B5002100230F225C
:101F9000C4781CB3174C246804F4E064C4F5E0640E
:101FA000C4F30721C1F10404E3B20A4144789C4020
:101FB000E1B28478144021430C07210E0E4C0578C1
:101FC0006155047804F01F050124AC4005786D11BB
:101FD000AD0005F1E025C5F8004109E0047804F002
:101FE0001F050124AC40054D0678761145F82640C2
:101FF00070BD00000CED00E000E400E080E100E0D6
:1020000002490143024A1160704700000000FA05CE
:102010000CED00E07047000029B1064A1268024347
:10202000044B1A6004E0034A12688243014B1A60B1
:10203000704700003038024029B1064A1268024356
:10204000044B1A6004E0034A12688243014B1A6091
:10205000704700003838024029B1064A126802432E
:10206000044B1A6004E0034A12688243014B1A6071
:102070007047000044380240F0B5002100220024DF
:10208000022500260223324F3F6807F00C0121B1E0
:10209000042905D0082937D105E02E4F076036E026
:1020A0002D4F076033E02A4F3F1F3F68C7F380562C
:1020B000274F3F1F3F6807F03F036EB1264FB7FB26
:1020C000F3F7DFF88CC0ACF1040CDCF800C0CCF303
:1020D000881C07FB0CF40CE01E4FB7FBF3F7DFF88E
:1020E00070C0ACF1040CDCF800C0CCF3881C07FB1A
:1020F0000CF4174F3F1F3F68C7F301477F1C7D005B
:10210000B4FBF5F7076002E0124F076000BF00BFA5
:102110000F4F3F6807F0F0010909104F7A5C07681C
:10212000D74047600A4F3F6807F4E051890A0B4FD8
:102130007A5C4768D7408760054F3F6807F4604185
:10214000490B064F7A5C4768D740C760F0BD000076
:10215000083802400024F40000127A000000002039
:10216000704700000CB500200190009034480068D2
:1021700040F480303249086000BF3148006800F404
:10218000003000900198401C0190009818B9019807
:10219000B0F5A04FF1D12A48006800F4003010B12A
:1021A0000120009001E0002000900098012846D115
:1021B00023484030006840F0805021494031086099
:1021C0002048006840F440401E4908601C48083020
:1021D00000681B49083108600846006840F4004068
:1021E00008600846006840F4A05008601648091FBF
:1021F0000860081F006840F08070091F086000BF79
:102200000F48006800F000700028F9D040F2057017
:102210000E4908600A480830006820F003000849A9
:10222000083108600846006840F00200086000BFFE
:1022300003480830006800F00C000828F8D10CBDF5
:10224000003802400070004019544007003C024032
:10225000042808D14FF0E021096941F004014FF052
:10226000E022116107E04FF0E021096921F004014B
:102270004FF0E022116170477047000010B515481B
:10228000006840F47000134908601348006840F08B
:1022900001001149086000200F49083108600E480C
:1022A00000680E4908400C4908600D48091D086087
:1022B000081F006820F48020091F086000200649DC
:1022C0000C310860FFF74EFF4FF000600149803984
:1022D000086010BD88ED00E000380240FFFFF6FE08
:1022E0001030002410B540F225511D4800F04AF886
:1022F00010B31B4800F000F9C4B21A48008800F47B
:102300000040C8B91748008800F4804060B10A2C2A
:1023100003D000201349088020E01248008840F4D0
:1023200000401049088019E00D2C06D10D480088A6
:1023300040F480400B49088010E00A480088C0F350
:102340000D0009490C5407480088401C05490880C5
:1023500008460088C72801DD0020088010BD000065
:1023600000100140180000202400002021B18289C3
:1023700042F40052828104E082894DF6FF731A40D4
:102380008281704770B5024600240023002500209A
:1023900040F66A16B14200D100BFC1F3421501F008
:1023A0001F03012606FA03F3012D02D1968933405B
:1023B00006E0022D02D1168A334001E0968A3340AE
:1023C0000C12012606FA04F41688344013B10CB13D
:1023D000012000E0002070BDF0B503460024002677
:1023E0000025002040F66A17B94200D100BF184608
:1023F000C1F3421401F01F06012707FA06F5012C6C
:1024000001D10C3004E0022C01D1103000E0143076
:102410001AB107682F43076002E00768AF430760FF
:10242000F0BD00002DE9FF4705460E460024A146F9
:1024300000BFA046B08900B100BF2C8A24F44054EC
:10244000F08804432C82AC8941F20C608443B0884C
:1024500031890843718908430443AC81AC8A24F470
:102460004074B0890443AC826846FFF705FE2048FB
:10247000854202D01F48854202D1DDF80C9001E070
:10248000DDF80890A88900F4004040B109EBC900CC
:1024900000EB091031684900B0FBF1F707E009EBE8
:1024A000C90000EB091031688900B0FBF1F7642026
:1024B000B7FBF0F004012009642101FB1078A88922
:1024C00000F4004040B1322000EBC800B0FBF1F056
:1024D00000F00700044308E0322000EB08106421FC
:1024E000B0FBF1F000F00F0004432C81BDE8FF8742
:1024F000001001400014014001468888C0F3080024
:10250000704700BFFEE703B401984100009850EA0D
:10251000C12018BF04204A0D18BF40F0010040F24E
:10252000FF72B2EB515F08BF40F00200012808BF04
:10253000052002B0704730380A2801D201207047C8
:1025400000207047014600BF7047000010B50446E8
:102550006FF00400FFF77CFEE11704EB5171C1F34B
:10256000C701074A11701046007800EB4001C1EB2B
:10257000C0104FF6FF7101EAC0000249088010BD8B
:10258000100000201200002070B504464FF40770C0
:1025900094FBF0F0C6B24FF4077094FBF0F100FB2F
:1025A000114085B205E04FF4077000F02FF8701E5F
:1025B000C6B2002EF7D115B1284600F027F870BD3D
:1025C0000146114A12784A434FF0E0235A61002233
:1025D0009A611A46126942F001021A6100BF4FF077
:1025E000E022106900F001021AB100F48032002AE2
:1025F000F5D04FF0E022126922F001024FF0E02303
:102600001A6100229A617047100000200146114AA9
:1026100012884A434FF0E0235A6100229A611A4619
:10262000126942F001021A6100BF4FF0E022106906
:1026300000F001021AB100F48032002AF5D04FF008
:10264000E022126922F001024FF0E0231A61002219
:102650009A6170471200002000BF054A128802F0FC
:102660004002002AF9D0C2B2014B9A8070470000A4
:10267000001001402DED048B82B0002501264FF49F
:10268000A060FFF7BDFCA820FFF760FF4FF4E1302A
:1026900000F0CCF8FEF73EFEFFF7BCF936205649B5
:1026A00008800C20891C08802C20891E08800024AA
:1026B0000BE05248405D07025048805D07434E489A
:1026C000801C0780AD1CB61C641CB4F5963FF0D38B
:1026D00000BF00BF8EE0FEF797FE494890ED000A6C
:1026E000DFED480A20EE208ABDEEC80A10EE100A7F
:1026F0000A2190FBF1F201FB1200002813DBBDEE72
:10270000C80A10EE100A90FBF1F201FB1200052836
:1027100009DABDEEC80A10EE100A90FBF1F090FB4A
:10272000F1F201FB1208BDEEC80A10EE100A0A21F0
:1027300090FBF1F201FB1200052815DBBDEEC80A83
:1027400010EE100A90FBF1F201FB120009280BDCDD
:10275000BDEEC80A10EE100A90FBF1F090FBF1F20A
:1027600001FB120000F101082548006800F024FA7E
:1027700041EC190B53EC192B23A0FDF783FD25A089
:10278000FDF780FD25A018210B469622CDE900100B
:1027900032215220FFF72AFB002018210223CDE925
:1027A0000010174890ED000ABCEEC00A10EE102A87
:1027B00032218220FFF74DFB1AA018210B4632224E
:1027C000CDE9001011469A20FFF710FB00201821D8
:1027D00001234246CDE900103221A520FFF739FB45
:1027E00011A018210B463222CDE900101146B0206D
:1027F000FFF7FCFA6FE70000FE1F006CB22C000828
:10280000200000200000C84254656D3A2530352E66
:1028100032660000A1E60D0A0000000054656D3A22
:10282000000000002E0000006043000010B588B0DA
:10283000044601210846FFF7EFFB01211020FFF7B6
:102840000BFC072209212248FFF71BF807220A2167
:102850001F48FFF716F84FF4C060069002208DF86D
:102860001C008DF81D0000208DF81E0001208DF841
:102870001F0006A91648FEF7BCFF02940020ADF821
:102880000C00ADF80E00ADF81000ADF814000C20EF
:10289000ADF8120002A90F48FFF7C4FD01210D4851
:1028A000FFF764FD012240F225510A48FFF794FD2D
:1028B00025208DF8040003208DF805008DF8060012
:1028C00001208DF8070001A8FFF75EFB08B010BDDE
:1028D000000002400010014010B500290AD008781D
:1028E000002807D005487844FEF706F9002801D0F3
:1028F000002010BD0248784410BD00005274020050
:102900004A74020021F00042A2F16052B2F5801F29
:1029100001F0004328BFD2F17F6C0BD95FEA001CA5
:1029200043EAC20242EB507018BF704728BF20F044
:1029300001007047B2F5801FBCBF184670474FEAD0
:10294000410C1CF5001F02D2084600F0ABB970B56F
:1029500000F0DEF800000089FFF7F6BF4FF00040FE
:10296000A0F58000704710F0004248BF4042B0FA26
:1029700080F310FA03F10AD0C3F11D0303F580635D
:102980004FEA415002EB035202EBD12170474FF066
:1029900000007047B0FA80F310FA03F10AD0C3F1D7
:1029A0001D0303F580634FEA41504FEA035202EBE7
:1029B000D12170474FF0000070470000DFF848C198
:1029C00070B51CEA111E1EBF1CEA13159EEA0C0FFF
:1029D00095EA0C0F00F06F8081EA030423EA4C13A0
:1029E0004EEAD47E21EA4C1141F4801143F4801365
:1029F000AE44A1FB024CA0FB0365AEF17F7E36190D
:102A000055EB0C05A1FB034C4CF10003A0FB021C91
:102A100016EB0C06654153F10003094218BF46F05E
:102A2000010613F4007F0BD14FEA03314FEA053062
:102A3000340341EA155140EA16506FF003020AE0F0
:102A40004FEAC3214FEAC520F40241EA555140EA5A
:102A500056506FF0020202EB2E4201EB025585EA5E
:102A6000CE710AD05FEA440C18BF24F0004450F144
:102A7000000041F1000120EAD47040F2FE7C624582
:102A800000D270BDA84214BF4FF080444FF04044C4
:102A9000002E08BF0024BEF1806FA8BFA1F1C04185
:102AA000BDE8704080F282804FF0000001F1C0412B
:102AB00001F0004170479EEA0C0F0CEA131518BF95
:102AC00095EA0C0F06D04FF0000081EA030E0EF0DD
:102AD000004170BD00F01CF88900013E00F007B80D
:102AE00000F009B84FEA430C5FEA5C5C08D081EA69
:102AF000030100F05BB84FEA410C5FEA5C5CF6D181
:102B00004FF00000014970470000FF070000F87F08
:102B10000EF1020E2EF0030E5EF8046B364205D461
:102B2000012A43EB030515F5001F12D8012841EBDC
:102B3000010C1CF5001F0CD80ED14FEAD17C15F505
:102B4000001F0CEB4C0C0CF1020C08BF4CEBD37CBF
:102B500004E04FF0080C01E04FEAD37C0CEB4C058D
:102B600026FA05F606F00706B6F1040C06D20EEBBF
:102B7000860CBDE870404CF0010C6047DFE80CF0BB
:102B8000090B02024FF000414FF00000A1F50021B7
:102B900070BD19461046012851EB010418BFD4F549
:102BA000001484BF002001F0004170BD0808A0F5AA
:102BB00000114FEA3101704743004FEAD30C4FEA4E
:102BC0003C0C43401FBF40070CF1605113F0FE4F17
:102BD00070471CF0006F03D100200CF000417047DB
:102BE0000CF0004343EA507010B540EACC0000F00E
:102BF0000EF800BF000000924FEA0001FFF7D6BFB9
:102C00004FF000414FF00000A1F5002170470EF198
:102C1000020E2EF0030E5EF8044B244204D44FEA59
:102C20004102B2F17F4F11D84FEA4003B3F17F4F19
:102C30000CD80ED14FEAD07CB2F17F4F0CEB4C0C8C
:102C40000CF1020C08BF4CEBD17C04E04FF0080CF7
:102C500001E04FEAD17C0CEB4C0324FA03F404F0BE
:102C60000704B4F1040C06D20EEB840CBDE810404E
:102C70004CF0010C6047DFE80CF0070802024FF04F
:102C80000040A0F5800010BD0846420018BFD2F1F8
:102C9000807288BF00F0004010BD4FF04070E1EE40
:102CA000100A7047FF2141EAD050C0057047FDF778
:102CB00094BC11AE11AE11AE11AE11AE11AE11AE8B
:102CC00011AE11AE11AE11AE11AE11AE11AE11AE0C
:102CD00011AE11AE11AE11AE11AE11AE11AE11AEFC
:102CE00011AE11CF11CF11CF11CF11CF11CF11CF05
:102CF00011CF11CF11CF11CF11CF11CF11CF11CFD4
:102D000011CF11CF11CF11CF11CF11CF11CF11CFC3
:102D100011CF11CF11CF11CF11CF11CF11CF11CFB3
:102D200011CF11EF11EF11EF11EF11EF11CF11CF03
:102D300011CF11EF11EF11EF11EF11EF11EF11EFB3
:102D400011EF11F011F011F011F011F011F011F07C
:102D500011F0121012101210121012101210121084
:102D60001210121012101210121012101210121053
:102D7000121019F019F019F01A101A101A101A106E
:102D80001A101A101A101A101A101A101A101A10F3
:102D90001A101A111A111A111A111A111A111A11DC
:102DA0001A111A311A311A311A311A311A311A31EB
:102DB0001A311A311A311A311A311A311A311A31BB
:102DC0001A311A311A311A311A311A311A311A31AB
:102DD0001A311A311A311A311A311A311A311A319B
:102DE0001A311A511A511A511A311A31123112313B
:102DF00012311A511A511A511A511A511A511A51A3
:102E00001A511A511A511A511A511A511A511A516A
:102E10001A511A511A501A501A501A501A501A5060
:102E20001A501A501A501A501A501A501A501A5052
:102E30001A50125112511251125112511251125173
:102E4000125112311231123112311231123112314A
:102E5000123112511251125112511251125112517A
:102E60001251125012501250125012501250125051
:102E70001250125012501250125012501250125042
:102E80001250125012501250125012501250125032
:102E9000125011AE11AE11AE11AE11AE11AE11AE97
:102EA00011AE11AE11AE11AE11AE11AE11AE11AE2A
:102EB00011AE11AE11AE11AE11AE11AE11AE11AE1A
:102EC00011AE11CF11CF11CF11CF11CF11CF11CF23
:102ED00011CF11CF11CF11CF11CF11CF11CF11CFF2
:102EE00011CF11CF11CF11CF11CF11CF11CF11CFE2
:102EF00011CF11CF11CF11CF11CF11CF11CF11CFD2
:102F000011CF11EF11EF11EF11EF11EF11EF11CF01
:102F100011CF11EF11EF11EF11EF11EF11EF11EFD1
:102F200011EF11F011F011F011F011F011F011F09A
:102F300011F01210121012101210121012101210A2
:102F40001210121012101210121012101210121071
:102F50001210121019F01A101A101A101A101A1052
:102F60001A101A101A101A101A101A101A101A1011
:102F70001A101A111A111A111A111A111A111A11FA
:102F80001A111A311A311A311A311A311A311A3109
:102F90001A311A311A311A311A311A311A311A31D9
:102FA0001A311A311A311A311A311A311A311A31C9
:102FB0001A311A311A311A311A311A311A311A31B9
:102FC0001A311A511A511A511A311A311231123159
:102FD00012311A511A511A511A511A511A511A51C1
:102FE0001A511A511A511A511A511A511A511A5189
:102FF0001A511A511A501A511A501A511A501A517C
:103000001A501A511A501A511A501A511A501A516C
:103010001A51125112511251125112511251125190
:103020001251123112311231123112311231123168
:103030001231125112511251125112511251125198
:10304000125112501250125012501250125012506F
:103050001250125012501250125012501250125060
:103060001250125012501250125012501250125050
:10307000125011AE11AE11AE11AE11AE11AE11AEB5
:1030800011AE11AE11AE11AE11AE11AE11AE11AE48
:1030900011AE11AE11AE11AE11AE11AE11AE11AE38
:1030A00011AE11CF11CF11CF11CF11CF11CF11CF41
:1030B00011CF11CF11CF11CF11CF11CF11CF11CF10
:1030C00011CF11CF11CF11CF11CF11CF11CF11CF00
:1030D00011CF11CF11CF11CF11CF11CF11CF11CFF0
:1030E00011CF11EF11EF11EF11EF11EF11EF11CF20
:1030F00011CF11EF11EF11EF11EF11EF11EF11EFF0
:1031000011EF11F011F011F011F011F011F011F0B8
:1031100011F01210121012101210121012101210C0
:10312000121012101210121012101210121012108F
:10313000121012101A101A101A101A101A101A104F
:103140001A101A101A101A101A101A101A101A102F
:103150001A101A111A111A111A111A111A111A1118
:103160001A111A311A311A311A311A311A311A3127
:103170001A311A311A311A311A311A311A311A31F7
:103180001A311A311A311A311A311A311A311A31E7
:103190001A311A311A311A311A311A311A311A31D7
:1031A0001A311A511A511A311A311A311A3112318F
:1031B00012311A511A511A511A511A511A511A51DF
:1031C0001A511A511A511A511A511A511A511A51A7
:1031D0001A511A511A511A511A511A511A511A5197
:1031E0001A511A511A511A511A511A511A511A5187
:1031F0001A511251125112511251125112511251AF
:103200001251123112311231123112311231123186
:1032100012311251125112511251125112511251B6
:10322000125112501250125012501250125012508D
:10323000125012501250125012501250125012507E
:10324000125012501250125012501250125012506E
:10325000125011AE11AE11AE11AE11AE11AE11AED3
:1032600011AE11AE11AE11AE11AE11AE11AE11AE66
:1032700011AE11AE11AE11AE11AE11AE11AE11AE56
:1032800011AE11CF11CF11CF11CF11CF11CF11CF5F
:1032900011CF11CF11CF11CF11CF11CF11CF11CF2E
:1032A00011CF11CF11CF11CF11CF11CF11CF11CF1E
:1032B00011CF11EF11EF11EF11EF11EF11EF11EF2E
:1032C00011EF11EF11EF11EF11F011F011EF11EFFC
:1032D00011EF11F011F011F011F011F011F011F0E7
:1032E00011F011F011F011F011F011F011F011F0D6
:1032F00011F01210121012101210121012101210DF
:1033000012101210121012101210121012101210AD
:1033100012101A101A101A101A101A101A101A1065
:103320001A101A101A101A101A101A101A101A104D
:103330001A101A311A311A311A311A311A311A3156
:103340001A311A311A311A311A311A311A311A3125
:103350001A311A311A311A311A311A311A311A3115
:103360001A311A311A311A311A311A311A311A3105
:103370001A311A311A311A311A311A311A311A31F5
:103380001A311A311A311A311A311A311A311A31E5
:103390001A311A511A511A511A511A511A511A51F5
:1033A0001A511A511A511A511A511A511A511A51C5
:1033B0001A511A511A511A511A511A511A511A51B5
:1033C0001A511A511A511A511A511A511A511A51A5
:1033D0001A511A511A511A511A511A511A511A5195
:1033E0001A511251125112511251125112511251BD
:1033F00012511251125112511251125112511251B5
:1034000012511251125112511251125112511251A4
:10341000125112511250125012501250125012509A
:1034200012501A501A501A501A501A501A501A5054
:103430001A5011AE11AE11AE11AE11AE11AE11AEE9
:1034400011AE11AE11AE11AE11AE11AE11AE11AE84
:1034500011AE11AF11AF11AF11AF11AF11AF11AF6D
:1034600011AF11CF11CF11CF11CF11CF11CF11CF7C
:1034700011CF11CF11CF11CF11CF11CF11CF11CF4C
:1034800011CF11CF11CF11CF11CF11CF11CF11CF3C
:1034900011CF11D011D011D011D011D011D011D025
:1034A00011D011D011F011F011F011F011F011F054
:1034B00011F011F011F011F011F011F011F011F004
:1034C00011F011F011F011F011F011F011F011F0F4
:1034D00011F01210121012101210121012101210FD
:1034E00012101210121012101210121012101210CC
:1034F00012101A101A101A101A101A101A101A1084
:103500001A101A101A101A101A101A101A101A106B
:103510001A101A311A311A311A311A311A311A3174
:103520001A311A311A311A311A311A311A311A3143
:103530001A311A311A311A311A311A311A311A3133
:103540001A311A311A311A311A311A311A311A3123
:103550001A311A311A311A311A311A311A311A3113
:103560001A311A311A311A311A311A311A311A3103
:103570001A311A511A511A511A511A511A511A5113
:103580001A511A511A511A511A511A511A511A51E3
:103590001A511A511A511A511A511A511A511A51D3
:1035A0001A511A511A511A511A511A511A511A51C3
:1035B0001A511A51125112511251125112511251E3
:1035C00012511251125112511251125112511251E3
:1035D00012511251125112511251125112511251D3
:1035E00012511251125112511251125112511251C3
:1035F00012511251125112511251125112511251B3
:1036000012511A511A511A511A511A511A511A516A
:103610001A5111CF11CF11CF11CF11CF11CF11CF1F
:1036200011CF11AE11AE11AE11AE11AE11AE11AE81
:1036300011AE11AF11AF11AF11AF11AF11AF11AF8B
:1036400011AF11CF11CF11CF11CF11CF11CF11CF9A
:1036500011CF11D011D011D011D011D011D011D063
:1036600011D011D011D011D011D011D011D011D052
:1036700011D011F011F011F011F011F011F011F062
:1036800011F011D011F011F011F011F011F011F052
:1036900011F011F011F011F011F011F011F011F022
:1036A00011F011F011F011F011F011F011F011F012
:1036B00011F012101210121012101210121012101B
:1036C00012101A101A101A101A101A101A101A10B2
:1036D0001A101A101A101A101A101A101A101A109A
:1036E0001A111A111A111A111A111A111A111A1182
:1036F0001A311A311A311A311A311A311A311A3172
:103700001A311A311A311A311A311A311A311A3161
:103710001A311A311A311A311A311A311A311A3151
:103720001A311A311A311A311A311A311A311A3141
:103730001A311A311A311A311A311A311A311A3131
:103740001A31123112311A311A311A311A311A5111
:103750001A511A511A511A511A511A511A511A5111
:103760001A511A511A511A511A511A511A511A5101
:103770001A511A511A511A511A511A511A511A51F1
:103780001A511A511A511A511A511A511A511A51E1
:103790001A511A511A511A511A511A511A511A51D1
:1037A0001A511251125112511251125112511251F9
:1037B00012511251125112511251125112511251F1
:1037C00012511251125112511251125112511251E1
:1037D00012511A511A511A511A511A511A511A5199
:1037E0001A511A511A511A511A511A511A511A5181
:1037F0001A5111CF11CF11CF11CF11CF11CF11CF3E
:1038000011CF11AE11AE11AE11AE11AE11AE11AE9F
:1038100011AE11AF11AF11AF11AF11AF11AF11AFA9
:1038200011AF11CF11CF11CF11CF11CF11CF11CFB8
:1038300011CF11D011D011D011D011D011D011D081
:1038400011D011D011D011D011D011D011D011D070
:1038500011D011F011F011F011F011F011F011F080
:1038600011F011D011F011F011F011F011F011F070
:1038700011F011F011F011F011F011F011F011F040
:1038800011F011F011F011F011F011F011F011F030
:1038900011F0121012101210121012101210121039
:1038A00012101A101A101A101A101A101A101A10D0
:1038B0001A101210121012101A101A101A101A31AF
:1038C0001A311A311A311A311A311A311A311A31A0
:1038D0001A311A311A311A311A311A311A311A3190
:1038E0001A311A311A311A311A311A311A311A3180
:1038F0001A311A3112311231123112311A311A3190
:103900001A311A311A311A311A311A311A311A315F
:103910001A311A31125112511251125112511251BF
:103920001251123112311231125112511A511A51CF
:103930001A511A511A511A511A511A511A511A512F
:103940001A511A511A511A511A511A511A511A511F
:103950001A511A521A521A521A521A521A521A5208
:103960001A521A521A521A521A521A521A521A52F7
:103970001A511A511A511A511A511A511A511A51EF
:103980001A51125112511251125112511251125117
:10399000125112511251125112511251125112510F
:1039A00012511251125112511251125112511251FF
:1039B00012511A511A511A511A511A511A511A51B7
:1039C0001A511A511A511A511A511A511A511A519F
:1039D0001A5111CF11CF11CF11CF11CF11CF11CF5C
:1039E00011CF11AE11AE11AE11AE11AE11AE11AEBE
:1039F00011AE11AF11AF11AF11AF11AF11AF11AFC8
:103A000011AF11CF11CF11CF11CF11CF11CF11CFD6
:103A100011CF11D011D011D011D011D011D011D09F
:103A200011D011D011D011D011D011D011D011D08E
:103A300011D011F011F011F011F011F011F011F09E
:103A400011F011D011D011F011F011F011F011F0AE
:103A500011F011F011F011F011F011F011F011F05E
:103A600011F011F011F011F011F011F011F011F04E
:103A700011F0121012101210121012101210121057
:103A800012101A101A101A101A101A101A101A10EE
:103A90001A101210121012101A101A101A311A31AC
:103AA0001A311A311A311A311A311A311A311A31BE
:103AB0001A311A311A311A311A311A311A311A31AE
:103AC0001A311A311A311A311A311A311A311A319E
:103AD0001A31123112311231123112311A311A31B6
:103AE0001A311A311A311A311A311A311A311A317E
:103AF00012511251125112511251125112511251AE
:103B00001251123112311231125112511A511A51ED
:103B10001A511A511A511A511A511A511A511A514D
:103B20001A511A511A511A511A511A511A511A513D
:103B30001A511A521A521A521A521A521A521A5226
:103B40001A521A521A521A521A521A521A521A5215
:103B500012521A511A511A511A511A511A511A5114
:103B60001A51125112511251125112511251125135
:103B7000125112511251125112511251125112512D
:103B8000125112511251125112511251125112511D
:103B900012511A511A511A511A511A511A511A51D5
:103BA0001A511A511A511A511A511A511A511A51BD
:103BB0001A5111CF11AE11AE11AE11AE11AE11AE40
:103BC00011CF11AE11AE11AE11AE11AE11AE11AEDC
:103BD00011AE11AF11AF11AF11AF11AF11AF11AFE6
:103BE00011AF11CF11CF11CF11CF11CF11CF11CFF5
:103BF00011CF11CF11CF11CF11CF11CF11CF11CFC5
:103C000011CF11D011D011D011F011F011F011F02D
:103C100011F011F011D011D011D011D011F011F01C
:103C200011F011D011F011F011F011F011F01A1083
:103C30001A101A101A101A101A101A101A101A1034
:103C40001A101A101A101A101A101A101A101A1024
:103C50001A1012101210121012101210121012104C
:103C600012101A311A311A311A311A311A311A3125
:103C70001A311A311A311A311A311A311A311A31EC
:103C80001A311A311A311A311A311A311A311A31DC
:103C90001A311A311A311A311A311A311A511A518C
:103CA0001A511A311A311A311A311A311A311A319C
:103CB0001A311A311251125112511251125112511C
:103CC00012511251125112511251125112511251DC
:103CD00012511A51125112511251125112511251C4
:103CE0001251125112511251125112511A511A51AC
:103CF0001A511A511A511A511A511A511A511A516C
:103D00001A511A511A511A511A511A511A511A515B
:103D10001A511A521A521A521A521A521A521A5244
:103D20001A521A521A521A521A521A521A521A5233
:103D30001A521A511251125112511251125112515A
:103D4000125112511251125112511251125112515B
:103D5000125112511251125112511251125112514B
:103D6000125112511251125112511251125112513B
:103D70001A511A511A511A511A511A511A511A51EB
:103D80001A511A5112511251125112511A511A51FB
:103D90001A5111CF11AE11AE11AE11AE11AE11AE5E
:103DA00011CF11AE11AE11AE11AE11AE11AE11AEFA
:103DB00011AE11AF11AF11AF11AF11AF11AF11AF04
:103DC00011AF11CF11CF11CF11CF11CF11CF11CF13
:103DD00011CF11CF11CF11CF11CF11CF11CF11CFE3
:103DE00011CF11D011D011F011F011F011F011F02C
:103DF00011F011F011F011D011D011F011F011F0FB
:103E000011F011F011F011F011F011F011F01A1081
:103E10001A101A101A101A101A101A101A101A1052
:103E20001A101A101A101A101A101A101A101A1042
:103E30001A1012101210121012101210121012106A
:103E400012101A311A311A311A311A311A311A3143
:103E50001A311A311A311A311A311A311A311A310A
:103E60001A311A311A311A311A311A311A311A31FA
:103E70001A311A311A311A311A311A311A511A51AA
:103E80001A511A311A311A311A311A311A311A31BA
:103E90001A31125112511251125112511251125122
:103EA00012511251125112511251125112511251FA
:103EB00012511251125112511251125112511251EA
:103EC0001251125112511251125112511A511A51CA
:103ED0001A511A511A511A511A511A511A511A518A
:103EE0001A511A511A511A511A511A511A511A517A
:103EF0001A511A521A521A521A521A521A521A5263
:103F00001A521A521A521A521A521A521A521A5251
:103F10001A5212521251125112511251125112517F
:103F20001251125112511251125112511251125179
:103F30001251125112511251125112511251125169
:103F40001251125112511251125112511251125159
:103F500012511A511A511A511A511A511A511A5111
:103F60001A511A511A51125112511A511A511A5109
:103F70001A5111CF11AE11AE11AE11AE11AE11AE7C
:103F800011CF11AE11AE11AE11AE11AE11AE11AE18
:103F900011AE11AF11AF11AF11AF11AF11AF11AF22
:103FA00011AF11CF11CF11CF11CF11CF11CF11CF31
:103FB00011CF11CF11CF11CF11CF11CF11CF11CF01
:103FC00011CF11D011F011F011F011F011F011F02A
:103FD00011F011F011F011D011D011F011F011F019
:103FE00011F011F011F011F011F011F011F01A119F
:103FF0001A111A111A111A111A111A111A111A1169
:104000001A111A111A111A111A111A111A111A1158
:104010001A11121112111211121112111211121180
:1040200012111A111A111A111A111A111A111A1140
:104030001A111A311A311A311A311A311A311A3148
:104040001A311A311A311A311A311A311A311A3118
:104050001A311A31123112311A311A311A511A51D8
:104060001A511A311A311A311A311A311A311A31D8
:104070001A31125112511251125112511251125140
:104080001251125112511251125112511251125118
:104090001251125112511251125112511251125108
:1040A0001251125112511251125112511A511A51E8
:1040B0001A511A511A511A511A511A511A511A51A8
:1040C0001A511A511A511A511A511A511A511A5198
:1040D0001A511A521A521A521A521A521A521A5281
:1040E0001A521A521A521A521A521A521A521A5270
:1040F0001A52125212521252125212521252125298
:10410000125212521252125212521252125212528F
:104110001251125112511251125112511251125187
:104120001251125112511251125112511251125177
:1041300012511A511A511A511A511A511A511A512F
:104140001A511A511A51125112511A511A511A5127
:104150001A5111CF11AE11AE11AE11AE11AE11AE9A
:1041600011CF11AE11AE11AE11AE11AE11AE11AE36
:1041700011AF11CF11CF11CF11CF11CF11CF11CF5F
:1041800011CF11CF11CF11CF11CF11CF11CF11CF2F
:1041900011CF11D011D011D011D011D011D011D018
:1041A00011D011F011F011F011F011F011F011F027
:1041B00011F011F011F011F011F011F011F011F0F7
:1041C00011F011F011F011F011F011F01A111A1193
:1041D0001A111A111A111A111A111A111A111A1187
:1041E0001A111A111A111A111A111A111A111A1177
:1041F0001A111A111A111A111A111A111A111A1167
:104200001A111A111A111A111A111A111A111A1156
:104210001A111A311A311A311A311A311A311A3166
:104220001A311A311A311A311A311A311A311A3136
:104230001A311231123112311A311A311A511A51FE
:104240001A511A311A311A311A311A311A311A31F6
:104250001A3112511251125112511251125112515E
:1042600012511A511A511A511A511A511A511A51FE
:104270001251125112511251125112511251125126
:104280001251125112511251125112511A511A5106
:104290001A511A511A511A511A511A511A511A51C6
:1042A0001A511A511A511A511A511A511A511A51B6
:1042B0001A511A521A521A521A521A521A521A529F
:1042C0001A521A521A521A521A521A521A521A528E
:1042D00012521252125212521252125212521252BE
:1042E00012521252125212521252125212521252AE
:1042F00012521251125112511251125112511251A5
:104300001251125112511251125112511251125195
:1043100012511A511A511A511A511A511A511A514D
:104320001A511A511A511A511A511A511A511A5135
:104330001A7111CF11CE11CE11AE11AE11CE11CE18
:1043400011CF11CE11CE11CE11CE11CE11CE11CE74
:1043500011CF11CF11AF11CF11CF11CF11CF11CF7D
:1043600011CF11CF11CF11CF11CF11CF11CF11CF4D
:1043700011CF11D011D011D011D011D011D011D036
:1043800011D011F011F011F011F011F011F011F045
:1043900011F011F011F011F011F011F011F011F015
:1043A00011F011F011F011F011F011F01A111A11B1
:1043B0001A111A111A111A111A111A111A111A11A5
:1043C0001A111A111A111A111A111A111A111A1195
:1043D0001A111A111A111A111A111A111A111A1185
:1043E0001A111A111A111A111A111A111A111A1175
:1043F0001A111A311A311A311A311A311A311A3185
:104400001A311A311A311A311A311A311A311A3154
:104410001A311231123112311A311A311A511A511C
:104420001A511A311A311A311A311A311A311A3114
:104430001A3112511251125112511251125112517C
:104440001251125112511251125112511251125154
:104450001251125112511251125112511251125144
:104460001251125112511251125112511251125134
:104470001251125112511251125112511251125124
:104480001251125112511251125112511251125114
:104490001251125112511251125112511251125104
:1044A00012511251125112511251125112511251F4
:1044B00012511252125212521252125212521252DD
:1044C00012521252125212521252125212521252CC
:1044D00012521271127112711271127112711271E3
:1044E00012711271127112711271127112711271B4
:1044F00012511A511A511A511A511A511A511A516C
:104500001A511A511A511A511A511A511A511A5153
:104510001A7111CF11CE11CE11AE11AE11CE11CE36
:1045200011CF11CE11CE11CE11CE11CE11CE11CE92
:1045300011CF11CF11CF11CF11CF11CF11CF11CF7B
:1045400011CF11D011D011D011D011D011D011D064
:1045500011D011F011F011F011F011F011F011F073
:1045600011F011F011F011F011F011F011F011F043
:1045700011F011F011F011F011F011F011F011F033
:1045800011F011F011F011F01A111A111A111A117B
:104590001A111A111A111A111A111A111A111A11C3
:1045A0001A111A111A111A111A111A111A111A11B3
:1045B0001A111A111A111A111A111A111A111A11A3
:1045C0001A111A111A111A111A111A111A111A1193
:1045D0001A111A311A311A311A311A311A311A31A3
:1045E0001A311A311A311A311A311A311A311A3173
:1045F0001A311231123112311A311A311A511A513B
:104600001A511A311A311A311A311A311A311A3132
:104610001251125112511251125112511251125182
:1046200012511A511A511A511A511A511A511A513A
:104630001A5112511251125112511251125112515A
:104640001251125112511251125112511251125152
:104650001251125112511251125112511251125142
:104660001251125112511251125112511251125132
:104670001251125112511251125112511251125122
:104680001251125112511251125112511251125112
:1046900012511252125212521252125212521252FB
:1046A00012521252125212521252125212521252EA
:1046B0001252127112711271127112711271127101
:1046C00012711271127112711271127112711271D2
:1046D00012511A511A511A511A511A511A511A518A
:1046E0001A511A511A511A511A511A511A511A7152
:1046F0001A7111CF11CE11CE11AE11AE11CE11CE55
:1047000011CF11CE11CE11CE11CE11CE11CE11CEB0
:1047100011CF11CF11CF11CF11CF11CF11CF11CF99
:1047200011CF11D011D011D011D011F011F011F022
:1047300011F011F011F011F011F011F011F011F071
:1047400011F011F011F011F011F011F011F011F061
:1047500011F011F011F011F011F011F011F011F051
:104760001A111A111A111A111A111A111A111A11F1
:104770001A111A111A111A111A111A111A111A11E1
:104780001A111A111A111A111A111A111A111A11D1
:104790001A111A111A111A111A111A111A111A11C1
:1047A0001A111A111A111A111A111A111A111A11B1
:1047B0001A111A311A311A311A311A311A311A31C1
:1047C0001A311A311A311A311A311A311A311A3191
:1047D0001A31123112311231125112511A511A5129
:1047E0001A511251125112511251125112511251A9
:1047F00012511251125112511251125112511251A1
:1048000012511A511A511A511A511A511A511A5158
:104810001A51125112511251125112511251125178
:104820001251125112511251125112511251125170
:104830001251125112511251125112511251125160
:104840001251125112511251125112511251125150
:104850001251125112511251125112511251125140
:104860001251125112511251125112511251125130
:104870001251125212521252125212521252125219
:104880001252125212521252125212521252125208
:10489000125212711271127112711271127112711F
:1048A00012711271127112711271127112711271F0
:1048B00012511A511A511A511A511A511A511A51A8
:1048C0001A511A511A511A511A511A511A511A7170
:1048D0001A7211CF11CE11CE11CE11AE11CE11CE52
:1048E00011CF11CE11CE11CE11CE11CE11CE11CECF
:1048F00011CF11CF11CF11CF11CF11CF11CF11CFB8
:1049000011CF11D011D011D011D011F011F011F040
:1049100011F011F011F011F011F011F011F011F08F
:1049200011F011F011F011F011F011F011F011F07F
:1049300011F011F011F011F011F011F011F011F06F
:104940001A111A111A111A111A111A111A111A110F
:104950001A111A111A111A111A111A111A111A11FF
:104960001A111A111A111A111A111A111A111A11EF
:104970001A111A111A111A111A111A111A111A11DF
:104980001A111A111A111A111A111A111A111A11CF
:104990001A311A311A311A311A311A311A311A31BF
:1049A0001A311A311A311A311A311A311A311A31AF
:1049B0001A31123112311231125112511A511A5147
:1049C0001A511251125112511251125112511251C7
:1049D00012511251125112511251125112511251BF
:1049E00012511A511A511A511A511A511A511A5177
:1049F0001A51125112511251125112511251125197
:104A0000125112511251125112511251125112518E
:104A1000125112511251125112511251125112517E
:104A2000125112511251125112511251125112516E
:104A3000125112511251125112511251125112515E
:104A4000125112511251125112511251125112514E
:104A500012511271127112521271125212711252BB
:104A600012711252127112521271125212711252AA
:104A7000127112711271127112711271127112711E
:104A8000127112711271127112711271127112710E
:104A900012511A511A511A511A511A511A511A51C6
:104AA0001A511A711A511A511A511A511A711A714E
:104AB0001A7211CF11CF11CF11CF11CF11CF11CF4A
:104AC00011CF11CF11CF11CF11CF11CF11CF11CFE6
:104AD00011CF11CF11CF11CF11CF11CF11CF11CFD6
:104AE00011CF11EF11EF11D011D011D011D011D081
:104AF00011D011CF11D011D011D011F011F011F04F
:104B000011F011D011F011F011F011F011F01A1193
:104B10001A1111F011F011F01211121112111211DB
:104B2000121112111211121112111211121112116D
:104B300012111A111A111A111A111A111A111A1125
:104B40001A111A111A111A111A111A111A111A110D
:104B50001A111A311A311A311A311A311A311A311D
:104B60001A311A311A311A311A311A311A311A31ED
:104B70001A311A311A311A311A311A311A311A31DD
:104B80001A311A311A311A311A311A311A311A31CD
:104B90001A311A311A311A311A311A311A311251A5
:104BA00012511251125112511251125112511251ED
:104BB00012511A511A511A511A511A511A511A51A5
:104BC0001A511251125112511251125112511251C5
:104BD00012511251125112511251125112511251BD
:104BE00012511251125112511251125112511251AD
:104BF000125112511251125112511251125112519D
:104C0000125112511251125112511251125112518C
:104C1000125112711271127112711271127112719C
:104C2000127112711271127112711271127112716C
:104C3000127112711271127112711271127112715C
:104C4000127112711271127112711271127112714C
:104C5000127112711271127112711271127112713C
:104C6000127112711271127112711271127112712C
:104C7000127112711271127112711271127112711C
:104C800012711271125112511A7112711251125184
:104C90001A9211CF11CF11CF11CF11CF11CF11CF48
:104CA00011CF11CF11CF11CF11CF11CF11CF11CF04
:104CB00011CF11CF11CF11CF11CF11CF11CF11CFF4
:104CC00011CF11EF11EF11D011D011D011D011D09F
:104CD00011D011D011D011D011F011F011F011F04C
:104CE00011F011F011F011F011F011F011F01A1192
:104CF0001A1111F011F012111211121112111211D8
:104D0000121112111211121112111211121112118B
:104D100012111A111A111A111A111A111A111A1143
:104D20001A111A111A111A111A111A111A111A112B
:104D30001A111A311A311A311A311A311A311A313B
:104D40001A311A311A311A311A311A311A311A310B
:104D50001A311A311A311A311A311A311A311A31FB
:104D60001A311A311A311A311A311A311A311A31EB
:104D70001A311A311A311A311A311A311A311251C3
:104D8000125112511251125112511251125112510B
:104D900012511A511A511A511A511A511A511A51C3
:104DA0001A511A511A511A511A511A511A511A51AB
:104DB0001A511251125112511251125112511251D3
:104DC00012511251125112511251125112511251CB
:104DD00012511251125112511251125112511251BB
:104DE00012511251125112511251125112511251AB
:104DF00012511271127112711271127112711271BB
:104E0000127112711271127112711271127112718A
:104E1000127112711271127112711271127112717A
:104E2000127112711271127112711271127112716A
:104E3000127112711271127112711271127112715A
:104E4000127112711271127112711271127112714A
:104E5000127112711271127112711271127112713A
:104E6000127112711251127112711271125112716A
:104E70001A9211CF11CF11CF11CF11CF11CF11CF66
:104E800011CF11CF11CF11CF11CF11CF11CF11CF22
:104E900011CF11CF11CF11CF11CF11CF11CF11CF12
:104EA00011CF11D011D011D011D011D011D011D0FB
:104EB00011D011D011D011D011F011F011F011F06A
:104EC00011F011F011F011F011F011F011F011F0DA
:104ED00011F011F0121112111211121112111211FE
:104EE00012111A111A111A111A111A111A111A1172
:104EF0001A111A111A111A111A111A111A111A115A
:104F00001A111A111A111A111A111A111A111A1149
:104F10001A111A311A311A311A311A311A311A3159
:104F20001A311A311A311A311A311A311A311A3129
:104F30001A311A311A311A311A311A311A311A3119
:104F40001A311A311A311A311A311A311A311A3109
:104F50001A311A311A311A311A311A311A521A52B7
:104F60001A52123112311251125112511251125160
:104F700012511A521A521A521A521A521A521A52DA
:104F80001A521A521A521A521A521A521A521A52C1
:104F90001A521252125212521252125212521252E9
:104FA00012521252125212521252125212521252E1
:104FB00012521252125212521252125212521252D1
:104FC00012521252125212521252125212521252C1
:104FD00012521252127212721272127212721272F1
:104FE00012721272127212721272127212721272A1
:104FF0001271127112711271127112711271127199
:105000001271127112711271127112711271127188
:105010001271127212721272127212721272127271
:105020001272127112711271127112711271127167
:105030001271127212721272127212721272127251
:105040001272127212511271127212721251127184
:105050001A9211CF11CF11CF11CF11CF11CF11CF84
:1050600011CF11CF11CF11CF11CF11CF11CF11CF40
:1050700011CF11EF11EF11EF11EF11EF11EF11EF50
:1050800011EF11F011F011F011F011F011F011F019
:1050900011F011D011F011F011F011F011F011F028
:1050A00011F011F011F011F011F011F011F011F0F8
:1050B00011F01211121112111211121112111A11F2
:1050C0001A111A111A111A111A111A111A111A1188
:1050D0001A111A111A111A111A111A111A111A1178
:1050E0001A111A111A111A111A111A111A111A1168
:1050F0001A111A311A311A311A311A311A311A3178
:105100001A311A311A311A311A311A311A311A3147
:105110001A311A311A311A311A311A311A311A3137
:105120001A311A311A311A311A311A311A311A3127
:105130001A311A311A311A311A521A521A521A5293
:105140001A521A521252125212521252125212522F
:1051500012521A521A521A521A521A521A521A52F7
:105160001A521A521A521A521A521A521A521A52DF
:1051700012721252125212521252125212521252EF
:1051800012521252125212521252125212521252FF
:1051900012521252125212521252125212521252EF
:1051A00012521252125212521252125212521252DF
:1051B00012521272127212721272127212721272EF
:1051C00012721272127212721272127212721272BF
:1051D00012721271127112711271127112711271B6
:1051E00012711271127112711271127112711271A7
:1051F0001271127212721272127212721272127290
:105200001272127112711271127112711271127185
:10521000127112721272127212721272127212726F
:1052200012721272125112711272127212511271A2
:105230001A9211CF11CF11CF11CF11CF11CF11CFA2
:1052400011CF11CF11CF11CF11CF11CF11CF11CF5E
:1052500011CF11EF11EF11EF11EF11EF11EF11EF6E
:1052600011EF11F011F011F011F011F011F011F037
:1052700011F011F011F011F011F011F011F011F026
:1052800011F01A111A111A1111F011F011F011F098
:1052900011F0121112111211121112111A111A1108
:1052A0001A111A111A111A111A111A111A111A11A6
:1052B0001A111A111A111A111A111A111A111A1196
:1052C0001A111A111A111A111A111A111A111A1186
:1052D0001A111A311A311A311A311A311A311A3196
:1052E0001A311A311A311A311A311A311A311A3166
:1052F0001A311A311A311A311A311A311A311A3156
:105300001A311A311A311A311A311A311A311A3145
:105310001A311A311A311A311A521A521A521A52B1
:105320001A52125212521252125212521252125255
:10533000125212521252125212521252125212524D
:10534000125212721272127212721272127212725D
:10535000127212521252125212521252125212520D
:10536000125212521252125212521252125212521D
:10537000125212521252125212521252125212520D
:1053800012521252125212521252125212521252FD
:10539000125212721272127212721272127212720D
:1053A00012721272127212721272127212721272DD
:1053B00012721271127112711271127112711271D4
:1053C00012711271127112711271127112711271C5
:1053D00012711272127212721272127212721272AE
:1053E00012721271127112711271127112711271A4
:1053F000127112721272127212721272127212728E
:1054000012721272125112711272127212511271C0
:105410001A9211CF11CF11CF11CF11CF11CF11CFC0
:1054200011CF11CF11CF11CF11CF11CF11CF11CF7C
:1054300011CF11EF11EF11EF11EF11EF11EF11EF8C
:1054400011EF11F011F011F011F011F011F011F055
:1054500011F011F011F011F011F011F011F011F044
:1054600011F011F011F011F01A111A111A111A118C
:105470001A1112111211121112111A111A111A11F4
:105480001A111A111A111A111A111A111A111A11C4
:105490001A111A111A111A111A111A111A111A11B4
:1054A0001A111A111A111A111A111A111A111A11A4
:1054B0001A311A311A311A311A311A311A311A3194
:1054C0001A311A311A311A311A311A311A311A3184
:1054D0001A311A311A311A311A311A311A311A3174
:1054E0001A311A311A311A311A311A311A311A3164
:1054F0001A311A311A311A521A521A521A521A52AF
:105500001A521A521A521252125212521252125263
:10551000125212521252125212521252125212526B
:10552000125212521252125212521252125212525B
:10553000125212521252125212521252125212524B
:10554000125212521252125212521252125212523B
:10555000125212521252125212521252125212522B
:10556000125212521252125212521252125212521B
:10557000125212721272127212721272127212722B
:1055800012721272127212721272127212721272FB
:1055900012721272127112711271127112711271F1
:1055A00012711271127112711271127112711271E3
:1055B00012711272127212721272127212721272CC
:1055C00012721271127112711271127112711271C2
:1055D00012711272127212721272127212721272AC
:1055E00012721272125112711272127212511271DF
:1055F0001A9211CF11CF11CF11CF11CF11CF11CFDF
:1056000011CF11CF11CF11CF11CF11CF11CF11CF9A
:1056100011CF11EF11EF11EF11EF11EF11EF11F0A9
:1056200011F011F011F011F011F011F011F011F072
:1056300011F011F011F011F011F011F011F011F062
:1056400011F011F011F011F01A111A111A111A11AA
:105650001A111211121112111A111A111A111A110A
:105660001A111A111A111A111A111A111A111A11E2
:105670001A111A311A311A311A311A311A311A31F2
:105680001A311A311A311A311A311A311A311A31C2
:105690001A311A3112311231123112311A311A31D2
:1056A0001A311A311A311A311A311A311A311A31A2
:1056B0001A311A31123112311231123112311231C2
:1056C00012311231123112311231123112311231C2
:1056D0001231123212321A521A521A521A521A72C3
:1056E0001A721A521A521252125212521252125262
:1056F000125212521252125212521252125212528A
:105700001252125212521252125212521252125279
:105710001252125212521252125212521252125269
:105720001252125212521252125212521252125259
:105730001252125212521252125212521252125249
:105740001252125212521252125212521252125239
:105750001252127212721272127212721272127249
:105760001272127212721272127212721272127219
:105770001272127212721272127212721272127209
:1057800012721272127212721272127212721272F9
:1057900012721272127212721272127212721272E9
:1057A00012721272127212721272127212721272D9
:1057B00012721272127212721272127212721272C9
:1057C00012721272127212721272127212511272DA
:1057D0001A9211CF11CF11CF11CF11CF11CF11CFFD
:1057E00011CF11CF11CF11CF11CF11CF11CF11CFB9
:1057F00011CF11EF11EF11EF11EF11EF11EF11F0C8
:1058000011F011F011F011F011F011F011F011F090
:1058100011F011F011F011F011F011F011F011F080
:1058200011F011F011F011F01A111A111A111A11C8
:105830001A111211121112111A111A111A111A1128
:105840001A111A111A111A111A111A111A111A1100
:105850001A111A311A311A311A311A311A311A3110
:105860001A311A311A311A311A311A311A311A31E0
:105870001A31123112311231123112311A311A31F8
:105880001A311A311A311A311A311A311A311A31C0
:1058900012511231123112311231123112311231D0
:1058A00012311231123112311231123112311231E0
:1058B0001231123212321A521A521A521A521A72E1
:1058C0001A721A5212521252125212521252125288
:1058D00012521252125212521252125212521252A8
:1058E0001252125212521252125212521252125298
:1058F0001252125212521252125212521252125288
:105900001252125212521252125212521252125277
:105910001252125212521252125212521252125267
:105920001252125212521252125212521252125257
:105930001272127212721272127212721272127247
:105940001272127212721272127212721272127237
:105950001272127212721272127212721272127227
:105960001272127212721272127212721272127217
:105970001272127212721272127212721272127207
:1059800012721272127212721272127212721272F7
:1059900012721272127212721272127212721272E7
:1059A00012721272127212721272127212511272F8
:1059B0001A9211CF11CF11CF11CF11CF11CF11CF1B
:1059C00011CF11CF11CF11CF11CF11CF11D011D0D5
:1059D00011D011EF11EF11D011D011D011F011F041
:1059E00011F011F011F011F011F011F011F011F0AF
:1059F00011F011F011F011F01A111A111A111A11F7
:105A00001A1111F011F01A111A111A111A111A1192
:105A10001A111A111A111A111A311A311A111A11EE
:105A20001A111A111A111A111A111A111A111A111E
:105A30001A111A311A311A311A311A311A311A312E
:105A40001A311A311A311A311A311A311A311A31FE
:105A50001A311A311251125112511251125112515E
:105A600012511231123112311231123112311231FE
:105A700012311A521252125212521252125212521F
:105A800012521252125212521252125212521252F6
:105A900012521A521A521A521A521A521A521A52AE
:105AA00012521252125212521252125212521252D6
:105AB00012521252125212521252125212521252C6
:105AC00012521272127212721272127212721272D6
:105AD00012721252127212721272127212721272C6
